S123001DCE005833C9027133C9000033C90000108EC8808E00012717A6C0A7A0301F26F865
S11E003D108EC8818E000127066FA0301F26FABD022E5D2F037FCBFE7EF00051
S12000006720474345203230313780FD0DF850F0B847414D45205449544C458000E9
S10E0058040006FC00FCFD04FD040095
S1230063524F424F54205245504149522056302E318000312044415441205452414E534632
S123008345522055504C4F4144800032205245434F4E5354525543542042494E415259804A
S12300A3003320524550414952204944454E5449545920434F524580003420434F4D504904
S12300C34C4520494E54454C4C4947454E434580005354415254494E4720524F5554494E08
S12300E345203180005448454E20524F5554494E45203280004E4F5720524F5554494E4562
S12301032033800046494E414C20524F5554494E4520348000C678E7E28E0063C6A6BD025E
S1230123B13261C646E7E28E0076C688BD02B13261C628E7E28E008EC688BD02B13261C660
S12301430AE7E28E00A4C688BD02B13261C6ECE7E28E00BCC688BD02B13261F6C811C40198
S12301635D2716C601F7C881C6BAE7E28E00D4C688BD02B13261160056F6C811C4025D2756
S123018316C602F7C881C6BAE7E28E00E8C688BD02B13261160038F6C811C4045D2715C6E6
S12301A303F7C881C6BAE7E28E00F8C688BD02B13261201BF6C811C4085D2713C604F7C8DF
S12301C381C6BAE7E28E0107C688BD02B13261395354415254494E4720524F5554494E457C
S12301E320338000F6C811C4045D270EF6C8805D2608C601F7C880160030F6C8805D261016
S1230203C6BAE7E28E01D3C688BD02B13261201AC640F7D004C628E7E25FBD02C43261C6DE
S123022380F7D0048E0058BDF3CE393440327D7FC8817FC880BDF192BDF192C65FBD02AC0D
S1230243BDF1BAF6C881E762E662C10422E7E6624FEDE4ECE45849CE026330CBAE846E8466
S123026302A6026D027E028F0295C6BAE7E28E00D4C688BD02B1326116FFBAC6BAE7E28E16
S123028300E8C688BD02B1326116FFA9BD01E716FFA3C6BAE7E28E0107C688BD02B13261D3
S10C02A316FF92BD011816FF8C30
S12002AC1F987EF2AB3440327DE762AFE4A6671F13BDF37A326335C0A6627EF312E2
S9030000FC
