S1230023CE005E33C9066633C9000033C90000108EC8808E00012717A6C0A7A0301F26F860
S11E0043108EC8818E00F127066FA0301F26FABD02BD5D2F037FCBFE7EF000CC
S12300006720474345203231323580FF8FF850F0B8434F4D505554455220434F4E534F4C41
S106002045800014
S10E005E040006FC00FCFD04FD04008F
S1230069BD008ABD0084BD0080BD007CBDF1F8BDF192397FC822397FC82139C603F7C8206B
S123008939C601F7C81F39524F424F54205245504149522056302E318000312044415441E3
S12300A9205452414E534645522055504C4F4144800032205245434F4E535452554354207B
S12300C942494E41525980003320524550414952204944454E5449545920434F5245800065
S12300E93420434F4D50494C4520494E54454C4C4947454E434580005354415254494E4717
S123010920524F5554494E45203180005448454E20524F5554494E45203280004E4F572060
S1230129524F5554494E452033800046494E414C20524F5554494E4520348000C678E7E22E
S12301498E0090C6A6BD06AC3261C646E7E28E00A3C688BD06AC3261C628E7E28E00BBC6EA
S123016988BD06AC3261C60AE7E28E00D1C688BD06AC3261C6ECE7E28E00E9C688BD06ACF1
S12301893261F6C811C4015D2716C601F7C883C6BAE7E28E0101C688BD06AC3261160056F3
S12301A9F6C811C4025D2716C602F7C883C6BAE7E28E0115C688BD06AC3261160038F6C8B0
S12301C911C4045D2715C603F7C883C6BAE7E28E0125C688BD06AC3261201BF6C811C40872
S12301E95D2713C604F7C883C6BAE7E28E0134C688BD06AC326139327CC640F7D004F6C87D
S123020982E7E4F6C881E761E661E763E6E4E762E663E7E2E663BD06BF3261C680F7D004D8
S12302298E005EBDF3CEBD02A55D2F0AF6C882CB05F7C882200EBD02A55D2C08F6C882CBCE
S1230249FBF7C882BD02A15D2F0AF6C881CB05F7C881200EBD02A15D2C08F6C881CBFBF7F5
S1230269C881F6C881C1632F05C664F7C881F6C881C19C2E05C69CF7C881F6C882C1632F23
S123028905C664F7C882F6C882C19C2E05C69CF7C882BDF1F8326439F6C81C39F6C81B39D4
S12302A95354415254494E4720524F5554494E45203380003440327D7FC8817FC882BD003B
S12302C9697FC8837FC880BDF1BABDF192BDF192C65FBD06A7F6C883E762E662C10422E700
S12302E9E6624FEDE4ECE45849CE02FB30CBAE846E8403690305031603270358C6BAE7E2D3
S12303098E0101C688BD06AC326116FFBAC6BAE7E28E0115C688BD06AC326116FFA9F6C868
S123032911C4045D270DF6C8805D2607C601F7C8802019F6C8805D2610C6BAE7E28E02A9EC
S1230349C688BD06AC32612003BD020016FF78C6BAE7E28E0134C688BD06AC326116FF67F9
S1090369BD014516FF6111
S123036F080408040804050605050508080508084F4CE642260CAE40E680E743AF40C6805F
S123038FE7426442E44326E91E891F024FE642260CAE40E680E743AF40C680E7426442E46E
S12303AF4327014C48E642260CAE40E680E743AF40C680E7426442E44327014C48E642261E
S12303CF0CAE40E680E743AF40C680E7426442E44327014C313F102700B848E642260CAE32
S12303EF40E680E743AF40C680E7426442E44327014C313F1027009A48E642260CAE40E6C4
S123040F80E743AF40C680E7426442E44327014C313F277E48E642260CAE40E680E743AF9C
S123042F40C680E7426442E44327014C313F276248E642260CAE40E680E743AF40C680E784
S123044F426442E44327014C313F274648E642260CAE40E680E743AF40C680E7426442E421
S123046F4327014C313F272AA746EC45485824028A01ED45E642260CAE40E680E743AF4089
S123048FC680E7426442E44327026C46313F26DA207CA7462078FCC88C2758830001FDC889
S12304AF8CB6C890B7C891CEC892EC452746AE492712E64BA64FE685E7446C4BA14B2609FB
S12304CF6F4BEC45830001ED45E644A64E810D2604C51026169701861997008601970096FF
S12304EF01D701C611D700C601D70033C8107AC89126B739E642260CAE40E680E743AF4009
S123050FC680E7426442E4431026FE646C46E642260CAE40E680E743AF40C680E742644266
S123052FE443275210FFC88510EE4710AE4C4FB7C88878C8884CE642260CAE40E680E7431B
S123054FAF40C680E7426442E44327037CC888A1E42DDF2708E66231A5326320F2E661F1AA
S123056FC88826F1A662A74F10FEC8851F215FAF49E74B7E04C5EC45830001ED454FA74972
S123058FA74A8E036FE64EE685C108270CC1062738C105274CC1042760E642260CAE40E6E3
S12305AF80E743AF40C680E7426442E44327014C48E642260CAE40E680E743AF40C680E7A3
S12305CF426442E44327014C48E642260CAE40E680E743AF40C680E7426442E44327014CC6
S12305EF48E642260CAE40E680E743AF40C680E7426442E44327014C48E642260CAE40E6B3
S123060F80E743AF40C680E7426442E44327014C48E642260CAE40E680E743AF40C680E742
S123062F426442E44327014C48E642260CAE40E680E743AF40C680E7426442E44327014C65
S123064F48E642260CAE40E680E743AF40C680E7426442E44327014CA7447E04D88EC8929B
S123066FCC00E0BDF5487FC89010AEC1ECA4FDC88AFDC88CE6C07CC890E70E10AEC110AF8E
S11B068F0710AEC110AF0C10AEC110AF00308810E6C02AE2FFC88E39B8
S12006A71F987EF2AB3440327DE762AFE4A6671F13BDF37A326335C0A6627EF312E3
S9030000FC
