S123001DCE005833C9032E33C9000033C90000108EC8808E00012717A6C0A7A0301F26F8A7
S11E003D108EC8818E000327066FA0301F26FABD02B75D2F037FCBFE7EF000C6
S12000006720474345203230313780FD0DF850F0B847414D45205449544C458000E9
S10E0058040006FC00FCFD04FD040095
S1230063BD0084BD007EBD007ABD0076BDF1F8BDF192397FC822397FC82139C603F7C82089
S123008339C601F7C81F39524F424F54205245504149522056302E318000312044415441E9
S12300A3205452414E534645522055504C4F4144800032205245434F4E5354525543542081
S12300C342494E41525980003320524550414952204944454E5449545920434F524580006B
S12300E33420434F4D50494C4520494E54454C4C4947454E434580005354415254494E471D
S123010320524F5554494E45203180005448454E20524F5554494E45203280004E4F572066
S1230123524F5554494E452033800046494E414C20524F5554494E4520348000C678E7E234
S12301438E008AC6A6BD036E3261C646E7E28E009DC688BD036E3261C628E7E28E00B5C684
S123016388BD036E3261C60AE7E28E00CBC688BD036E3261C6ECE7E28E00E3C688BD036EC6
S12301833261F6C811C4015D2716C601F7C883C6BAE7E28E00FBC688BD036E326116005641
S12301A3F6C811C4025D2716C602F7C883C6BAE7E28E010FC688BD036E3261160038F6C8FD
S12301C311C4045D2715C603F7C883C6BAE7E28E011FC688BD036E3261201BF6C811C408BF
S12301E35D2713C604F7C883C6BAE7E28E012EC688BD036E326139327CC640F7D004F6C8CA
S123020382E7E4F6C881E761E661E763E6E4E762E663E7E2E663BD03813261C680F7D0041F
S12302238E0058BDF3CEBD029F5D2F0AF6C882CB05F7C882200EBD029F5D2C08F6C882CBE6
S1230243FBF7C882BD029B5D2F0AF6C881CB05F7C881200EBD029B5D2C08F6C881CBFBF707
S1230263C881F6C881C1632F05C664F7C881F6C881C19C2E05C69CF7C881F6C882C1632F29
S123028305C664F7C882F6C882C19C2E05C69CF7C882BDF1F8326439F6C81C39F6C81B39DA
S12302A35354415254494E4720524F5554494E45203380003440327D7FC8817FC882BD0041
S12302C3637FC8837FC880BDF1BABDF192BDF192C65FBD0369F6C883E762E662C10422E74D
S12302E3E6624FEDE4ECE45849CE02F530CBAE846E84036302FF031003210352C6BAE7E2FE
S12303038E00FBC688BD036E326116FFBAC6BAE7E28E010FC688BD036E326116FFA9F6C8FD
S123032311C4045D270DF6C8805D2607C601F7C8802019F6C8805D2610C6BAE7E28E02A3F8
S1230343C688BD036E32612003BD01FA16FF78C6BAE7E28E012EC688BD036E326116FF678E
S1090363BD013F16FF611D
S12003691F987EF2AB3440327DE762AFE4A6671F13BDF37A326335C0A6627EF31224
S9030000FC
