S123001DCE005833C9023933C9000033C90000108EC8808E00002717A6C0A7A0301F26F89E
S11E003D108EC8808E000127066FA0301F26FABD025E5D2F037FCBFE7EF00022
S12000006720474345203230313780FD0DF850F0B847414D45205449544C458000E9
S1230058040006FC00FCFD04FD0400524F424F54205245504149522056302E318000312041
S123007844415441205452414E534645522055504C4F4144800032205245434F4E5354529E
S12300985543542042494E41525980003320524550414952204944454E5449545920434FA1
S12300B8524580003420434F4D50494C4520494E54454C4C4947454E434580005354415263
S12300D854494E4720524F5554494E45203180005448454E20524F5554494E452032800074
S12300F84E4F5720524F5554494E452033800046494E414C20524F5554494E452034800053
S12301183440327DC678E7E28E0063C6A6BD02793261C646E7E28E0076C688BD027932617F
S1230138C628E7E28E008EC688BD02793261C60AE7E28E00A4C688BD02793261C6ECE7E258
S12301588E00BCC688BD02793261C640F7D004C628E7E25FBD028C3261C680F7D0048E00BC
S123017858BDF3CEF6C811C4015D2716C601F7C880C6BAE7E28E00D4C688BD02793261167F
S12301980056F6C811C4025D2716C602F7C880C6BAE7E28E00E8C688BD0279326116003891
S12301B8F6C811C4045D2715C603F7C880C6BAE7E28E00F8C688BD02793261201BF6C811F9
S12301D8C4085D2713C604F7C880C6BAE7E28E0107C688BD02793261F6C880E762E662C10F
S12301F8041022005DE6624FEDE4ECE45849CE020F30CBAE846E84025A0219022A023A0298
S12302184AC6BAE7E28E00D4C688BD02793261160030C6BAE7E28E00E8C688BD0279326196
S12302382020C6BAE7E28E00F8C688BD027932612010C6BAE7E28E0107C688BD0279326152
S11F02582000326335C07FC880BDF192BDF192C65FBD0274BDF1BABD011820EDF2
S12002741F987EF2AB3440327DE762AFE4A6671F13BDF37A326335C0A6627EF3121A
S9030000FC
