S123001CCE005733C9060033C9000033C90000108EC8808E00002717A6C0A7A0301F26F8D5
S11E003C108EC8808E001627066FA0301F26FABD02415D2F037FCBFE7EF0002B
S11F00006720474345203230323580FD0DF850F0B8464953482047414D45800043
S1230057FF0CF90802FBF800FA0707081C0002FC0404FC04E100F7F409F60D00FF3D3DFF02
S1230077003AFFC33DFF003AFF3D3DFF003AFFC33DFF0050FF3D3AFF003DFFC33BFFD8006D
S1230097FF3CC401050A2D40BD00C0BD00BABD00B6BD00B2BDF1F8BDF192397FC822397FB3
S12300B7C82139C603F7C82039C601F7C81F393279AF61E7E4BDF354F60057F7D004E66A52
S12300D7E764E669E763E664E7E2E664BD06523261E6E4F7D004AE61AF65AE65BDF410325E
S12300F76739BD016D5D2F0AF6C882CB05F7C882200EBD016D5D2C08F6C882CBFBF7C88202
S1230117BD01695D2F0AF6C881CB05F7C881200EBD01695D2C08F6C881CBFBF7C881F6C8CF
S123013781C1772F05C678F7C881F6C881C1B02E05C6B0F7C881F6C882C1772F05C678F7BF
S1230157C882F6C882C1882E05C688F7C882BDF1F839F6C81C39F6C81B39327CBDF354C673
S123017780F7D004F6C882E7E4F6C881E761E661E763E6E4E762E663E7E2E663BD06523241
S123019761C678F7D0048E0058BDF3CEF6C8835D2603BD00F9326439C632E7E2C6CEE7E20C
S12301B7C6408E0073BD00C6326239327BF60057F7D004BDF354F6009EE761F6009D50E75E
S12301D763E661E762E663E7E2E663BD06523261F6009EE7E4E6E458E7E4E6E450E7646FEE
S12301F7E2E665BD064D3261326539594F55204B4E4F5720574841542054484154204D4591
S1230217414E533F8000F6C8805D271ABDF354C69CE7E28E0202C680BD06353261F6C88076
S12302375AF7C88020037FC88339327B7FC8817FC8827FC8837FC880BD009FBD05EFC6F052
S1230257F7D004BDF1BABDF192C65FBD0626BD0171BD01AFBD01C2F6C8835D102600566F4D
S123027764160046E6644F1F01AF62EC625849ED62EC62308BAF62EC625849ED62AE623003
S123029789C884BD0340E6644F1F01AFE4ECE45849EDE4ECE4308BAFE4ECE45849EDE4AED2
S12302B7E43089C884BD02D26C64E664C1021023FFB216FF89BD021D16FF833276AF68AE69
S12302D768E605E7E4F6C881E761F6009BE06150E1E4102E0050AE68E605E762F6C881E779
S12302F763F6009BE06350CB04E1622D39AE68E604E764F6C882E765F6009CEB65E1642DB9
S123031725AE68E604E766F6C882E767F6009CE06750E1662E10F6C8835D260AC601F7C8C0
S123033783C67FF7C880326A39344032E8ECAFE810BDF354E6F8105D2F16E6F8105AE7F8EA
S123035710E6F8105D2606AEE810BD057C160210AEE810E601E762E662C107102201CFE621
S1230377624FEDE4ECE45849CE038830CBAE846E84039803DB04020446046E04B304DB0521
S12303971FAEE810E604C1782E09AEE810E605C1782F08C604E7F8101601C5AEE810E604FD
S12303B7E763AEE810E602EB63AEE810E704AEE810E605E764AEE810E602EB64AEE810E725
S12303D705160171AEE810E604C1782F08C604E7F81016018BAEE810E604E765AEE810E6B2
S12303F702EB65AEE810E70416014AAEE810E604C1782E09AEE810E605C1882C08C604E7DF
S1230417F81016015BAEE810E604E766AEE810E602EB66AEE810E704AEE810E605E767AE6D
S1230437E810E602E06750AEE810E705160106AEE810E605C1882C08C604E7F8101601207D
S1230457AEE810E605E768AEE810E602E06850AEE810E7051600DEAEE810E604C1882D09E6
S1230477AEE810E605C1882C08C604E7F8101600EFAEE810E604E769AEE810E602E069508E
S1230497AEE810E704AEE810E605E76AAEE810E602E06A50AEE810E705160099AEE810E6D9
S12304B704C1882C08C604E7F8101600B3AEE810E604E76BAEE810E602E06B50AEE810E786
S12304D704160071AEE810E604C1882D09AEE810E605C1782F08C604E7F810160082AEE87F
S12304F710E604E76CAEE810E602E06C50AEE810E704AEE810E605E76DAEE810E602EB6D0E
S1230517AEE810E70516002DAEE810E605C1782F08C604E7F810160047AEE810E605E76EEE
S1230537AEE810E602EB6EAEE810E7052007C604E7F810202BC605F7C828C678F7D004AE93
S1230557E810E604E76FAEE810E605E7E813E66FE7E812E6E813E7E2E6E813BD0648326176
S123057732E81435C0327CAFE4BD062BC403E762C61EE763C6FFE7F4BD062BC407AEE4E7FE
S123059701BD062BC4035CAEE4E702AEE46F036D62260CAEE4C69CE705AEE4E663E704E622
S12305B762C101260CAEE4C664E705AEE4E663E704E662C102260CAEE4E663E705AEE4C600
S12305D79CE704E662C103260CAEE4E663E705AEE4C664E7043264393440327D6F622025C5
S12305F7E6624F1F01AFE4ECE45849EDE4ECE4308BAFE4ECE45849EDE4EEE430C9C884C617
S11206170AE7846C62E662C10223D5326335C000
S12306261F987EF2AB327FBDF5171F893261393440327DE762AFE4A6671F13BDF37A3263F3
S114064635C0A6627EF2C3A6627EF3DFA6627EF3128C
S9030000FC
