S123001CCE005733C907B033C9000033C90000108EC8808E00002717A6C0A7A0301F26F824
S11E003C108EC8808E001827066FA0301F26FABD039E5D2F037FCBFE7EF000CB
S11F00006720474345203230323580FD0DF850F0B8464953482047414D45800043
S1230057FF0CF90802FBF800FA0707081C0002FC0404FC04E100F7F409F60D00040006FC74
S123007700FCFD04FD0400FF2814FFD814FF2814FFD814FF2814FFD814FF2814FFD814FFD0
S12300972814FFD81401050A2D40BD00C2BD00BCBD00B8BD00B4BDF1F8BDF192397FC8223B
S12300B7397FC82139C603F7C82039C601F7C81F393279AF61E7E4BDF354F60057F7D004EA
S12300D7E66AE764E669E763E664E7E2E664BD08023261E6E4F7D004AE61AF65AE65BDF49E
S12300F710326739BD016F5D2F0AF6C883CB05F7C883200EBD016F5D2C08F6C883CBFBF703
S1230117C883BD016B5D2F0AF6C882CB05F7C882200EBD016B5D2C08F6C882CBFBF7C8823A
S1230137F6C882C1772F05C678F7C882F6C882C1B02E05C6B0F7C882F6C883C1772F05C66B
S123015778F7C883F6C883C1882E05C688F7C883BDF1F839F6C81C39F6C81B39327CBDF31B
S123017754C680F7D004F6C883E7E4F6C882E761E661E763E6E4E762E663E7E2E663BD08A7
S1230197023261C678F7D0048E0058BDF3CEF6C8855D2603BD00FB326439C632E7E2C6CE9D
S12301B7E7E2C6408E007EBD00C8326239327EE7E4BDF354C6FFF7D004E6E4E761E661E7A8
S12301D7E2C646BD08023261C640F7D0048E0058BDF3CE326239327DC6FFE762200EE66287
S12301F786143DEDE4E661BD01C46C62F6C8845AE1622EEA326339327BF60057F7D004BD5E
S1230217F354F600A0E761F6009F50E763E661E762E663E7E2E663BD08023261F600A0E7AD
S1230237E4E6E458E7E4E6E450E7646FE2E665BD07FD3261326539F6C882C1772F11C678B7
S1230257F7C882C603F7C881C67FF7C8802010F6C811C4015D2708F6C882CB05F7C88239DB
S1230277594F5520474F5420544845204D4147494320464953482180004649534821800024
S1230297594F55204B4E4F5720574841542054484154204D45414E533F8000F6C881C103EC
S12302B710260030BDF354C69CE7E28E0277C680BD07E53261F6C8805D270AF6C8805AF7AA
S12302D7C8801600937FC8817FC8857FC8827FC883160084F6C881C1021026004ABDF354CB
S12302F7C69CE7E28E0290C680BD07E53261F6C8805D270DBD024EF6C8805AF7C88016004D
S123031757F6C881C1031027004E7FC8817FC885F6C8845AF7C884F6C8845D102E0039C694
S123033704F7C881160031F6C8805D2721F6C881C101261ABDF354C69CE7E28E0297C68057
S1230357BD07E53261F6C8805AF7C880200AC602F7C881C67FF7C880397FC8827FC8837F6E
S1230377C8857FC8807FC881C603F7C88439594F552048415645204C4F535420544845207D
S123039747414D452E8000327BBD0370BD00A1BD079FC6F0F7D004BDF1BABDF192C65FBDD1
S12303B707D6BD0173BD01B1BD020EBD01EDF6C881C1042621BDF354C69CE7E28E0385C6D7
S12303D780BD07E53261F6C811C4085D1027FFC2BD037016FFBCF6C8855D102600566F6456
S12303F7160046E6644F1F01AF62EC625849ED62EC62308BAF62EC625849ED62AE6230895D
S1230417C886BD04C6E6644F1F01AFE4ECE45849EDE4ECE4308BAFE4ECE45849EDE4AEE46C
S12304373089C886BD04516C64E664C1021023FFB216FF5EBD02B216FF583276AF68AE68A1
S1230457E605E7E4F6C882E761F6009DE06150E1E4102E0057AE68E605E762F6C882E763F1
S1230477F6009DE06350CB04E162102D003EAE68E604E764F6C883E765F6009EEB65E164AD
S12304972D2AAE68E604E766F6C883E767F6009EE06750E1662E15F6C8855D260FC601F7C6
S12304B7C885C601F7C881C67FF7C880326A39344032E8ECAFE810BDF354E6F8105D2F16BF
S12304D7E6F8105AE7F810E6F8105D2606AEE810BD0702160210AEE810E601E762E662C1E0
S12304F707102201CFE6624FEDE4ECE45849CE050E30CBAE846E84051E0561058805CC0513
S1230517F40639066106A5AEE810E604C1782E09AEE810E605C1642F08C607E7F8101601BB
S1230537C5AEE810E604E763AEE810E602EB63AEE810E704AEE810E605E764AEE810E6022A
S1230557EB64AEE810E705160171AEE810E604C1782F08C607E7F81016018BAEE810E60429
S1230577E765AEE810E602EB65AEE810E70416014AAEE810E604C1782E09AEE810E605C1F2
S1230597882C08C607E7F81016015BAEE810E604E766AEE810E602EB66AEE810E704AEE873
S12305B710E605E767AEE810E602E06750AEE810E705160106AEE810E605C1882C08C60728
S12305D7E7F810160120AEE810E605E768AEE810E602E06850AEE810E7051600DEAEE810A8
S12305F7E604C1882D09AEE810E605C1882C08C607E7F8101600EFAEE810E604E769AEE832
S123061710E602E06950AEE810E704AEE810E605E76AAEE810E602E06A50AEE810E70516EB
S12306370099AEE810E604C1882C08C607E7F8101600B3AEE810E604E76BAEE810E602E024
S12306576B50AEE810E704160071AEE810E604C1882D09AEE810E605C1642F08C607E7F804
S123067710160082AEE810E604E76CAEE810E602E06C50AEE810E704AEE810E605E76DAE86
S1230697E810E602EB6DAEE810E70516002DAEE810E605C1642F08C607E7F810160047AE7E
S12306B7E810E605E76EAEE810E602EB6EAEE810E7052007C607E7F810202BC605F7C8288E
S12306D7C678F7D004AEE810E604E76FAEE810E605E7E813E66FE7E812E6E813E7E2E6E8EF
S12306F713BD07F8326132E81435C03278AF64BD07DBC403E766BD07DBE763E66386293DCC
S1230717EDE4ECE41F894FEDE4E66157575757E762E6635959C40150E0625086643DE0635D
S123073750E767C6FFE7F804BD07DBC407AE64E701BD07DBC4035CAE64E702AE646F036D46
S123075766260CAE64C69CE705AE64E667E704E666C101260CAE64C664E705AE64E667E78E
S123077704E666C102260CAE64E667E705AE64C69CE704E666C103260CAE64E667E705AE34
S123079764C664E7043268393440327D6F622025E6624F1F01AFE4ECE45849EDE4ECE4302D
S12207B78BAFE4ECE45849EDE4EEE430C9C886C60AE7846C62E662C10223D5326335C010
S12307D61F987EF2AB327FBDF5171F893261393440327DE762AFE4A6671F13BDF37A326342
S11407F635C0A6627EF2C3A6627EF3DFA6627EF312DB
S9030000FC
