S123001CCE005733C90BDE33C9000033C90000108EC8808E000A2717A6C0A7A0301F26F8E8
S11E003C108EC88A8E003427066FA0301F26FABD05D95D2F037FCBFE7EF00068
S11F00006720474345203230323580FD0DF850F0B8464953482047414D45800043
S1230057609B0A002F9C0C2F73092F020A2F20002F22002F32000F2F2D000F2F5A002F5D33
S10700770DD020FF85
S123007B0CF90802FBF800FA0707081C0002FC0404FC04E100F7F409F60D00040A05F60547
S123009BF6F6000A0AF6FF2814FFD814FF2814FFD814FF2814FFD814FF2814FFD814FF288C
S12300BB14FFD81401050A2D40BD00E5BD00DFBD00DBBD00D7BDF1F8BDF192397FC822397A
S12300DB7FC82139C603F7C82039C601F7C81F393279AF61E7E4BDF354F6007AF7D004E6F6
S12300FB6AE764E669E763E664E7E2E664BD0BFE3261E6E4F7D004AE61AF65AE65BDF41051
S123011B326739BD01925D2F0AF6C897CB05F7C897200EBD01925D2C08F6C897CBFBF7C8A4
S123013B97BD018E5D2F0AF6C896CB05F7C896200EBD018E5D2C08F6C896CBFBF7C896F63E
S123015BC896C1772F05C678F7C896F6C896C1B02E05C6B0F7C896F6C897C1772F05C67861
S123017BF7C897F6C897C1882E05C688F7C897BDF1F839F6C81C39F6C81B39327CBDF354DF
S123019BC680F7D004F6C897E7E4F6C896E761E661E763E6E4E762E663E7E2E663BD0BFEAE
S12301BB3261C678F7D0048E007BBDF3CEF6C89B5D2603BD011E326439C632E7E2C6CEE737
S12301DBE2C6408E00A1BD00EB3262C632E7E2C602E7E2C6408E00A1BD00EB326239327E01
S12301FBE7E4BDF354C6FFF7D004E6E4E761E661E7E2C646BD0BFE3261C640F7D0048E009B
S123021B7BBDF3CE326239327DC6FFE762200EE66286143DEDE4E661BD01F96C62F6C898FC
S123023B5AE1622EEA326339327C6F62160040BDF354C6FFF7D004E662860F3DEDE4E66181
S123025BCBC4E763C6BAE7E2E664BD0BFE3261E6621D1F01E689C8805D2607C680F7D004E3
S123027B2005C6F0F7D0048E0096BDF3CE6C62F6C89AE162102EFFB7326439327BF6007ACE
S123029BF7D004BDF354F600C3E761F600C250E763E661E762E663E7E2E663BD0BFE3261D9
S12302BBF600C3E7E4E6E458E7E4E6E450E7646FE2E665BD0BF932613265393440327BF672
S12302DBC896C1772F28C678F7C896C603F7C895BD0BD7C403F7C8AEF6C8995D2F08F6C8E6
S12302FBAECB03F7C8AEC67FF7C88A16003AF6C811C4015D2732C60AE763F6C8965D2C04D3
S123031BC614E763BD0BD74F1F01E6634FEDE4EEE43440BD0BBF32621F10E764F6C896E70D
S123033B62E664EB62F7C896326535C0594F5520474F5420412046495348218000594F5574
S123035B20474F5420412053494C4C592046495348218000594F5520474F54204120434F61
S123037B4F4C2046495348218000594F5520474F542041204D414749432046495348218004
S123039B00594F5520474F54204120535745444953482046495348218000594F5520474F01
S12303BB54204120554E4954592046495348218000594F5520474F54204120564543544FBC
S12303DB522046495348218000594F5520474F542041204556494C204649534821800046D8
S12303FB495348218000594F55204B4E4F5720574841542054484154204D45414E533F8005
S123041B003440327BF6C895C103102600F7BDF354F6C8AEE763E663C10610220095E6637E
S123043B4FEDE4ECE45849CE044B30CBAE846E840459046A047B048C049D04AE04BEC69C7F
S123045BE7E28E0347C680BD0BE13261160072C69CE7E28E0358C680BD0BE13261160061C5
S123047BC69CE7E28E036FC680BD0BE13261160050C69CE7E28E0385C680BD0BE132611671
S123049B003FC69CE7E28E039CC680BD0BE1326116002EC69CE7E28E03B5C680BD0BE1324E
S12304BB61201EC69CE7E28E03CCC680BD0BE13261200EC69CE7E28E03E4C680BD0BE13285
S12304DB61F6C88A5D270AF6C88A5AF7C88A1600B87FC8957FC89B7FC8967FC897F6C89A3C
S12304FBE762F6C899E764E6621D1F01E664E789C880F6C89AC109102E008EF6C89A5CF7D2
S123051BC89A160084F6C895C1021026004ABDF354C69CE7E28E03FAC680BD0BE13261F6F8
S123053BC88A5D270DBD02D6F6C88A5AF7C88A160057F6C895C1031027004E7FC8957FC80D
S123055B9BF6C8985AF7C898F6C8985D102E0039C604F7C895160031F6C88A5D2721F6C8A0
S123057B95C101261ABDF354C69CE7E28E0401C680BD0BE13261F6C88A5AF7C88A200AC6A6
S123059B02F7C895C6C8F7C88A326535C07FC8967FC8977FC89B7FC88A7FC895C603F7C8B1
S12305BB987FC89A39594F552048415645204C4F5354205448452047414D452E800034406A
S12305DB327BBD05A8BD00C4BD0A19C6F0F7D004BDF1BABDF192BD0BD0BD0A0F5D270B8ED0
S12305FB0057BFC8B8C601F7C8B5F6C8B5C1012603BD0A83C65FBD0BBABD0196BD01D4BD19
S123061B0296BD0222BD0243F6C895C1042621BDF354C69CE7E28E05C0C680BD0BE13261DD
S123063BF6C811C4085D1027FFA1BD05A816FF9BF6C89B5D102600566F64160046E6644FA8
S123065B1F01AF62EC625849ED62EC62308BAF62EC625849ED62AE623089C89CBD0736E6A7
S123067B644F1F01AFE4ECE45849EDE4ECE4308BAFE4ECE45849EDE4AEE43089C89CBD06E1
S123069BAF6C64E664C1021023FFB216FF3DBD041C16FF373276AF68AE68E605E7E4F6C807
S12306BB96E761F600C0E06150E1E4102E0069AE68E605E762F6C896E763F600C0E0635059
S12306DBCB04E162102D0050AE68E604E764F6C897E765F600C1EB65E164102D003AAE6897
S12306FBE604E766F6C897E767F600C1E06750E1662E25F6C89B5D261FC601F7C89BC60136
S123071BF7C895F6C8965D2D057FC8992005C601F7C899C67FF7C88A326A39344032E8EC82
S123073BAFE810BDF354E6F8105D2F16E6F8105AE7F810E6F8105D2606AEE810BD097216BD
S123075B0210AEE810E601E762E662C107102201CFE6624FEDE4ECE45849CE077E30CBAEAB
S123077B846E84078E07D107F8083C086408A908D10915AEE810E604C1782E09AEE810E694
S123079B05C1642F08C607E7F8101601C5AEE810E604E763AEE810E602EB63AEE810E704FA
S12307BBAEE810E605E764AEE810E602EB64AEE810E705160171AEE810E604C1782F08C681
S12307DB07E7F81016018BAEE810E604E765AEE810E602EB65AEE810E70416014AAEE81010
S12307FBE604C1782E09AEE810E605C1882C08C607E7F81016015BAEE810E604E766AEE8D1
S123081B10E602EB66AEE810E704AEE810E605E767AEE810E602E06750AEE810E705160132
S123083B06AEE810E605C1882C08C607E7F810160120AEE810E605E768AEE810E602E068DC
S123085B50AEE810E7051600DEAEE810E604C1882D09AEE810E605C1882C08C607E7F810CA
S123087B1600EFAEE810E604E769AEE810E602E06950AEE810E704AEE810E605E76AAEE844
S123089B10E602E06A50AEE810E705160099AEE810E604C1882C08C607E7F8101600B3AE26
S12308BBE810E604E76BAEE810E602E06B50AEE810E704160071AEE810E604C1882D09AEE7
S12308DBE810E605C1642F08C607E7F810160082AEE810E604E76CAEE810E602E06C50AEAB
S12308FBE810E704AEE810E605E76DAEE810E602EB6DAEE810E70516002DAEE810E605C104
S123091B642F08C607E7F810160047AEE810E605E76EAEE810E602EB6EAEE810E70520077E
S123093BC607E7F810202BC605F7C828C678F7D004AEE810E604E76FAEE810E605E7E8137D
S123095BE66FE7E812E6E813E7E2E6E813BD0BF4326132E81435C03278AF64BD0BD7C40322
S123097BE766BD0BD7E763E66386293DEDE4ECE41F894FEDE4E66157575757E762E66359F6
S123099B59C40150E0625086643DE06350E767C6FFE7F804BD0BD7C407AE64E701BD0BD785
S12309BBC4035CAE64E702AE646F036D66260CAE64C69CE705AE64E667E704E666C1012693
S12309DB0CAE64C664E705AE64E667E704E666C102260CAE64E667E705AE64C69CE704E6A9
S12309FB66C103260CAE64E667E705AE64C664E704326839BD0A15C40139F6C811393440E1
S1230A1B327D6F622025E6624F1F01AFE4ECE45849EDE4ECE4308BAFE4ECE45849EDE4EE18
S1180A3BE430C9C89CC60AE7846C62E662C10223D5326335C0CB
S1230A50609B0A002F9C0C2F73092F020A2F20002F22002F32000F2F2D000F2F5A002F5D30
S1060A700DD02082
S1230A73CC0000B7C844FDC8B8B7C8B5FDC8AF39B6C8B527FAFEC8B8E6C0C1D02606A6C4D3
S1230A93812027DCC5202707ECC1FDC84CE65DC5402705A6C0B7C8461F98840FB7C844B668
S1230AB3C845C510270F8A01C58027188A08B7C845FFC8B83984FEC58027098A08B7C8459D
S1230AD3FFC8B83984F7B7C845FFC8B839CC0000B7C843FDC8BAB7C8B6FDC8B139B6C8B62B
S1230AF327FAFEC8BAE6C0C1D02606A6C4812027DCC5202707ECC1FDC84AE65DC54027058A
S1230B13A6C0B7C8461F98840FB7C843B6C845C510270F8A02C58027188A10B7C845FFC884
S1230B33BA3984FDC58027098A10B7C845FFC8BA3984EFB7C845FFC8BA39CC0000B7C8421F
S1230B53FDC8BCB7C8B7FDC8B339B6C8B727FAFEC8BCE6C0C1D02606A6C4812027DCC520E8
S1230B732707ECC1FDC848E65DC5402705A6C0B7C8461F98840FB7C842B6C845C510270FFE
S1230B938A04C58027188A20B7C845FFC8BC3984FBC58027098A20B7C845FFC8BC3984DF81
S10A0BB3B7C845FFC8BC39B7
S1230BBA1F987EF2ABEC6226037EF0003410BD0C0332621F01393440BDF28935C0327FBD54
S1230BDAF5171F893261393440327DE762AFE4A6671F13BDF37A326335C0A6627EF2C3A6A4
S1230BFA627EF3DFA6627EF312327D6F606C604D2B066C60584920F8ED61EC656F656F6605
S11E0C1AA3612406E3611CFE20021A0169666965646166626A6026E832633922
S9030000FC
