S123001CCE005733C9059733C9000033C90000108EC8808E00002717A6C0A7A0301F26F83F
S11E003C108EC8808E001527066FA0301F26FABD01F65D2F037FCBFE7EF00078
S11F00006720474345203230323580FD0DF850F0B8464953482047414D45800043
S1230057FF0CF90802FBF800FA0707081C0002FC0404FC04E100F7F409F60D00FF3D3DFF02
S1230077003AFFC33DFF003AFF3D3DFF003AFFC33DFF0050FF3D3AFF003DFFC33BFFD8006D
S1230097FF3CC4012D40BD00BEBD00B8BD00B4BD00B0BDF1F8BDF192397FC822397FC821E1
S12300B739C603F7C82039C601F7C81F393279AF61E7E4BDF354F60057F7D004E66AE764F0
S12300D7E669E763E664E7E2E664BD05E93261E6E4F7D004AE61AF65AE65BDF41032673973
S12300F7BD016B5D2F0AF6C881CB05F7C881200EBD016B5D2C08F6C881CBFBF7C881BD01EC
S1230117675D2F0AF6C880CB05F7C880200EBD01675D2C08F6C880CBFBF7C880F6C880C154
S1230137772F05C678F7C880F6C880C1B02E05C6B0F7C880F6C881C1772F05C678F7C881BC
S1230157F6C881C1882E05C688F7C881BDF1F839F6C81C39F6C81B39327DBDF354C680F747
S1230177D004F6C881E7E4F6C880E762E6E4E761E662E7E2E662BD05E93261C678F7D0044D
S12301978E0058BDF3CEBD00F7326339C632E7E2C6CEE7E2C6408E0073BD00C432623932B9
S12301B77BF60057F7D004BDF354F6009CE761F6009B50E763E661E762E663E7E2E663BDE0
S12301D705E93261F6009CE7E4E6E458E7E4E6E450E7646FE2E665BD05E4326132653932FD
S12301F77B7FC8807FC8817FC882BD009DBD0586C6F0F7D004BDF1BABDF192C65FBD05BDA2
S1230217BD016FBD01A3BD01B66F64160046E6644F1F01AF62EC625849ED62EC62308BAFD2
S123023762EC625849ED62AE623089C883BD02D7E6644F1F01AFE4ECE45849EDE4ECE430CB
S12302578BAFE4ECE45849EDE4AEE43089C883BD02916C64E664C1021023FFB216FF91597D
S12302774F55204B4E4F5720574841542054484154204D45414E533F8000327CAF62F6C8EB
S123029782C1012613BDF354C69CE7E28E0276C680BD05CC32612025AE62E605E7E4F6C861
S12302B781E1E4270DAE62E604E761F6C880E161260BF6C8825D2605C601F7C88232643917
S12302D7344032E8ECAFE810BDF354E6F8105D2F16E6F8105AE7F810E6F8105D2606AEE80A
S12302F710BD0513160210AEE810E601E762E662C107102201CFE6624FEDE4ECE45849CE47
S1230317031F30CBAE846E84032F0372039903DD0405044A047204B6AEE810E604C1782EE0
S123033709AEE810E605C1782F08C604E7F8101601C5AEE810E604E763AEE810E602EB634D
S1230357AEE810E704AEE810E605E764AEE810E602EB64AEE810E705160171AEE810E6048E
S1230377C1782F08C604E7F81016018BAEE810E604E765AEE810E602EB65AEE810E7041636
S1230397014AAEE810E604C1782E09AEE810E605C1882C08C604E7F81016015BAEE810E632
S12303B704E766AEE810E602EB66AEE810E704AEE810E605E767AEE810E602E06750AEE8C7
S12303D710E705160106AEE810E605C1882C08C604E7F810160120AEE810E605E768AEE875
S12303F710E602E06850AEE810E7051600DEAEE810E604C1882D09AEE810E605C1882C08AF
S1230417C604E7F8101600EFAEE810E604E769AEE810E602E06950AEE810E704AEE810E6DF
S123043705E76AAEE810E602E06A50AEE810E705160099AEE810E604C1882C08C604E7F82C
S1230457101600B3AEE810E604E76BAEE810E602E06B50AEE810E704160071AEE810E604F5
S1230477C1882D09AEE810E605C1782F08C604E7F810160082AEE810E604E76CAEE810E621
S123049702E06C50AEE810E704AEE810E605E76DAEE810E602EB6DAEE810E70516002DAEC4
S12304B7E810E605C1782F08C604E7F810160047AEE810E605E76EAEE810E602EB6EAEE855
S12304D710E7052007C604E7F810202BC605F7C828C678F7D004AEE810E604E76FAEE81093
S12304F7E605E7E813E66FE7E812E6E813E7E2E6E813BD05DF326132E81435C0327CAFE4BB
S1230517BD05C2C403E762C61EE763C6FFE7F4BD05C2C407AEE4E701BD05C2C4035CAEE45C
S1230537E702AEE46F036D62260CAEE4C69CE705AEE4E663E704E662C101260CAEE4C66414
S1230557E705AEE4E663E704E662C102260CAEE4E663E705AEE4C69CE704E662C103260CAD
S1230577AEE4E663E705AEE4C664E7043264393440327D6F622025E6624F1F01AFE4ECE4D0
S12305975849EDE4ECE4308BAFE4ECE45849EDE4EEE430C9C883C60AE7846C62E662C10244
S10905B723D5326335C0B8
S12305BD1F987EF2AB327FBDF5171F893261393440327DE762AFE4A6671F13BDF37A32635D
S11405DD35C0A6627EF2C3A6627EF3DFA6627EF312F6
S9030000FC
