S123001DCE005833C9054233C9000033C90000108EC8808E00002717A6C0A7A0301F26F892
S11E003D108EC8808E001527066FA0301F26FABD01AA5D2F037FCBFE7EF000C3
S12000006720474345203230313780FD0DF850F0B847414D45205449544C458000E9
S1230058FF0CF90802FBF800FA0707081C0002FC0404FC04E100F7F409F60D000DE618303E
S123007833D0303033D2302E33D2302E33D2302E33D2302E33D030181ABD00B2BD00ACBD7B
S123009800A8BD00A4BDF1F8BDF192397FC822397FC82139C603F7C82039C601F7C81F391A
S12300B83279AF61E7E4BDF354F60058F7D004E66AE764E669E763E664E7E2E664BD059599
S12300D83261E6E4F7D004AE61AF65AE65BDF410326739BD015F5D2F0AF6C881CB05F7C892
S12300F881200EBD015F5D2C08F6C881CBFBF7C881BD015B5D2F0AF6C880CB05F7C8802026
S12301180EBD015B5D2C08F6C880CBFBF7C880F6C880C1772F05C678F7C880F6C880C1881A
S12301382E05C688F7C880F6C881C1772F05C678F7C881F6C881C1882E05C688F7C881BDB4
S1230158F1F839F6C81C39F6C81B39327DBDF354C640F7D004F6C881E7E4F6C880E762E641
S1230178E4E761E662E7E2E662BD05953261C680F7D0048E0059BDF3CEBD00EB326339C642
S12301984BE7E2C6CEE7E2C6808E0074BD00B8326239327B7FC8807FC8817FC882BD0091F5
S12301B8BD0537C6F0F7D004BDF1BABDF192C65FBD056EBD0163BD01976F64160046E664BD
S12301D84F1F01AF62EC625849ED62EC62308BAF62EC625849ED62AE623089C883BD028892
S12301F8E6644F1F01AFE4ECE45849EDE4ECE4308BAFE4ECE45849EDE4AEE43089C883BDA2
S123021802426C64E664C1021023FFB216FF94594F55204B4E4F5720574841542054484167
S123023854204D45414E533F8000327CAF62F6C882C1012613BDF354C69CE7E28E0227C655
S123025880BD057D32612025AE62E605E7E4F6C881E1E4270DAE62E604E761F6C880E1612B
S1230278260BF6C8825D2605C601F7C882326439344032E8ECAFE810BDF354E6F8105D2FF3
S123029816E6F8105AE7F810E6F8105D2606AEE810BD04C4160210AEE810E601E762E6620D
S12302B8C107102201CFE6624FEDE4ECE45849CE02D030CBAE846E8402E00323034A038EDA
S12302D803B603FB04230467AEE810E604C1782E09AEE810E605C1782F08C604E7F81016E9
S12302F801C5AEE810E604E763AEE810E602EB63AEE810E704AEE810E605E764AEE810E66D
S123031802EB64AEE810E705160171AEE810E604C1782F08C604E7F81016018BAEE810E66F
S123033804E765AEE810E602EB65AEE810E70416014AAEE810E604C1782E09AEE810E605F0
S1230358C1882C08C604E7F81016015BAEE810E604E766AEE810E602EB66AEE810E704AEDE
S1230378E810E605E767AEE810E602E06750AEE810E705160106AEE810E605C1882C08C688
S123039804E7F810160120AEE810E605E768AEE810E602E06850AEE810E7051600DEAEE8F5
S12303B810E604C1882D09AEE810E605C1882C08C604E7F8101600EFAEE810E604E769AE4E
S12303D8E810E602E06950AEE810E704AEE810E605E76AAEE810E602E06A50AEE810E7055B
S12303F8160099AEE810E604C1882C08C604E7F8101600B3AEE810E604E76BAEE810E60233
S1230418E06B50AEE810E704160071AEE810E604C1882D09AEE810E605C1782F08C604E74C
S1230438F810160082AEE810E604E76CAEE810E602E06C50AEE810E704AEE810E605E76D7D
S1230458AEE810E602EB6DAEE810E70516002DAEE810E605C1782F08C604E7F810160047AE
S1230478AEE810E605E76EAEE810E602EB6EAEE810E7052007C604E7F810202BC605F7C84C
S123049828C678F7D004AEE810E604E76FAEE810E605E7E813E66FE7E812E6E813E7E2E6F0
S12304B8E813BD0590326132E81435C0327CAFE4BD0573C403E762C61EE763C6FFE7F4BD0C
S12304D80573C407AEE4E701BD0573C4035CAEE4E702AEE46F036D62260CAEE4C69CE7058B
S12304F8AEE4E663E704E662C101260CAEE4C664E705AEE4E663E704E662C102260CAEE4A1
S1230518E663E705AEE4C69CE704E662C103260CAEE4E663E705AEE4C664E70432643934FC
S123053840327D6F622025E6624F1F01AFE4ECE45849EDE4ECE4308BAFE4ECE45849EDE4AE
S1190558EEE430C9C883C60AE7846C62E662C10223D5326335C0DD
S123056E1F987EF2AB327FBDF5171F893261393440327DE762AFE4A6671F13BDF37A3263AC
S10F058E35C0A6627EF2C3A6627EF312A2
S9030000FC
