S123001CCE005733C90A2033C9000033C90000108EC8808E000A2717A6C0A7A0301F26F8A7
S11E003C108EC88A8E002527066FA0301F26FABD05B65D2F037FCBFE7EF0009A
S11F00006720474345203230323580FD0DF850F0B8464953482047414D45800043
S1040057FFA5
S12300580CF90802FBF800FA0707081C0002FC0404FC04E100F7F409F60D00040A05F6056A
S1230078F6F6000A0AF6FF2814FFD814FF2814FFD814FF2814FFD814FF2814FFD814FF28AF
S123009814FFD81401050A2D40BD00C2BD00BCBD00B8BD00B4BDF1F8BDF192397FC8223929
S12300B87FC82139C603F7C82039C601F7C81F393279AF61E7E4BDF354F60057F7D004E63C
S12300D86AE764E669E763E664E7E2E664BD0A403261E6E4F7D004AE61AF65AE65BDF41033
S12300F8326739BD016F5D2F0AF6C897CB05F7C897200EBD016F5D2C08F6C897CBFBF7C80E
S123011897BD016B5D2F0AF6C896CB05F7C896200EBD016B5D2C08F6C896CBFBF7C896F6A7
S1230138C896C1772F05C678F7C896F6C896C1B02E05C6B0F7C896F6C897C1772F05C67884
S1230158F7C897F6C897C1882E05C688F7C897BDF1F839F6C81C39F6C81B39327CBDF35402
S1230178C680F7D004F6C897E7E4F6C896E761E661E763E6E4E762E663E7E2E663BD0A4090
S12301983261C678F7D0048E0058BDF3CEF6C89B5D2603BD00FB326439C632E7E2C6CEE7A1
S12301B8E2C6408E007EBD00C83262C632E7E2C602E7E2C6408E007EBD00C8326239327EB0
S12301D8E7E4BDF354C6FFF7D004E6E4E761E661E7E2C646BD0A403261C640F7D0048E007D
S12301F858BDF3CE326239327DC6FFE762200EE66286143DEDE4E661BD01D66C62F6C89866
S12302185AE1622EEA326339327C6F62160040BDF354C6FFF7D004E662860F3DEDE4E661A4
S1230238CBC4E763C6BAE7E2E664BD0A403261E6621D1F01E689C8805D2607C680F7D004C5
S12302582005C6F0F7D0048E0073BDF3CE6C62F6C89AE162102EFFB7326439327BF6005737
S1230278F7D004BDF354F600A0E761F6009F50E763E661E762E663E7E2E663BD0A40326101
S1230298F600A0E7E4E6E458E7E4E6E450E7646FE2E665BD0A3B32613265393440327BF677
S12302B8C896C1772F28C678F7C896C603F7C895BD0A19C403F7C8AEF6C8995D2F08F6C8C8
S12302D8AECB03F7C8AEC67FF7C88A16003AF6C811C4015D2732C60AE763F6C8965D2C04F6
S12302F8C614E763BD0A194F1F01E6634FEDE4EEE43440BD0A0832621F10E764F6C896E7A8
S123031862E664EB62F7C896326535C0594F5520474F5420412046495348218000594F5597
S123033820474F5420412053494C4C592046495348218000594F5520474F54204120434F84
S12303584F4C2046495348218000594F5520474F542041204D414749432046495348218027
S123037800594F5520474F54204120535745444953482046495348218000594F5520474F24
S123039854204120554E4954592046495348218000594F5520474F54204120564543544FDF
S12303B8522046495348218000594F5520474F542041204556494C204649534821800046FB
S12303D8495348218000594F55204B4E4F5720574841542054484154204D45414E533F8028
S12303F8003440327BF6C895C103102600F7BDF354F6C8AEE763E663C10610220095E663A2
S12304184FEDE4ECE45849CE042830CBAE846E840436044704580469047A048B049BC69CBA
S1230438E7E28E0324C680BD0A233261160072C69CE7E28E0335C680BD0A233261160061AC
S1230458C69CE7E28E034CC680BD0A233261160050C69CE7E28E0362C680BD0A2332611658
S1230478003FC69CE7E28E0379C680BD0A23326116002EC69CE7E28E0392C680BD0A233235
S123049861201EC69CE7E28E03A9C680BD0A233261200EC69CE7E28E03C1C680BD0A23326C
S12304B861F6C88A5D270AF6C88A5AF7C88A1600B87FC8957FC89B7FC8967FC897F6C89A5F
S12304D8E762F6C899E764E6621D1F01E664E789C880F6C89AC109102E008EF6C89A5CF7F5
S12304F8C89A160084F6C895C1021026004ABDF354C69CE7E28E03D7C680BD0A233261F6FE
S1230518C88A5D270DBD02B3F6C88A5AF7C88A160057F6C895C1031027004E7FC8957FC853
S12305389BF6C8985AF7C898F6C8985D102E0039C604F7C895160031F6C88A5D2721F6C8C3
S123055895C101261ABDF354C69CE7E28E03DEC680BD0A233261F6C88A5AF7C88A200AC6AC
S123057802F7C895C6C8F7C88A326535C07FC8967FC8977FC89B7FC88A7FC895C603F7C8D4
S1230598987FC89A39594F552048415645204C4F5354205448452047414D452E8000327B54
S12305B8BD0585BD00A1BD09CCC6F0F7D004BDF1BABDF192C65FBD0A03BD0173BD01B1BD73
S12305D80273BD01FFBD0220F6C895C1042621BDF354C69CE7E28E059DC680BD0A2332616D
S12305F8F6C811C4085D1027FFBFBD058516FFB9F6C89B5D102600566F64160046E6644FD3
S12306181F01AF62EC625849ED62EC62308BAF62EC625849ED62AE623089C89CBD06F3E62E
S1230638644F1F01AFE4ECE45849EDE4ECE4308BAFE4ECE45849EDE4AEE43089C89CBD0624
S12306586C6C64E664C1021023FFB216FF5BBD03F916FF553276AF68AE68E605E7E4F6C875
S123067896E761F6009DE06150E1E4102E0069AE68E605E762F6C896E763F6009DE06350E2
S1230698CB04E162102D0050AE68E604E764F6C897E765F6009EEB65E164102D003AAE68FD
S12306B8E604E766F6C897E767F6009EE06750E1662E25F6C89B5D261FC601F7C89BC6019C
S12306D8F7C895F6C8965D2D057FC8992005C601F7C899C67FF7C88A326A39344032E8ECC6
S12306F8AFE810BDF354E6F8105D2F16E6F8105AE7F810E6F8105D2606AEE810BD092F1644
S12307180210AEE810E601E762E662C107102201CFE6624FEDE4ECE45849CE073B30CBAE31
S1230738846E84074B078E07B507F908210866088E08D2AEE810E604C1782E09AEE810E6F1
S123075805C1642F08C607E7F8101601C5AEE810E604E763AEE810E602EB63AEE810E7043D
S1230778AEE810E605E764AEE810E602EB64AEE810E705160171AEE810E604C1782F08C6C4
S123079807E7F81016018BAEE810E604E765AEE810E602EB65AEE810E70416014AAEE81053
S12307B8E604C1782E09AEE810E605C1882C08C607E7F81016015BAEE810E604E766AEE814
S12307D810E602EB66AEE810E704AEE810E605E767AEE810E602E06750AEE810E705160176
S12307F806AEE810E605C1882C08C607E7F810160120AEE810E605E768AEE810E602E06820
S123081850AEE810E7051600DEAEE810E604C1882D09AEE810E605C1882C08C607E7F8100D
S12308381600EFAEE810E604E769AEE810E602E06950AEE810E704AEE810E605E76AAEE887
S123085810E602E06A50AEE810E705160099AEE810E604C1882C08C607E7F8101600B3AE69
S1230878E810E604E76BAEE810E602E06B50AEE810E704160071AEE810E604C1882D09AE2A
S1230898E810E605C1642F08C607E7F810160082AEE810E604E76CAEE810E602E06C50AEEE
S12308B8E810E704AEE810E605E76DAEE810E602EB6DAEE810E70516002DAEE810E605C147
S12308D8642F08C607E7F810160047AEE810E605E76EAEE810E602EB6EAEE810E7052007C2
S12308F8C607E7F810202BC605F7C828C678F7D004AEE810E604E76FAEE810E605E7E813C1
S1230918E66FE7E812E6E813E7E2E6E813BD0A36326132E81435C03278AF64BD0A19C403E3
S1230938E766BD0A19E763E66386293DEDE4ECE41F894FEDE4E66157575757E762E66359F8
S123095859C40150E0625086643DE06350E767C6FFE7F804BD0A19C407AE64E701BD0A1946
S1230978C4035CAE64E702AE646F036D66260CAE64C69CE705AE64E667E704E666C10126D6
S12309980CAE64C664E705AE64E667E704E666C102260CAE64E667E705AE64C69CE704E6EC
S12309B866C103260CAE64E667E705AE64C664E7043268393440327D6F622025E6624F1F8B
S12309D801AFE4ECE45849EDE4ECE4308BAFE4ECE45849EDE4EEE430C9C89CC60AE7846CEF
S10E09F862E662C10223D5326335C001
S1230A031F987EF2ABEC6226037EF0003410BD0A4532621F0139327FBDF5171F89326139ED
S1230A233440327DE762AFE4A6671F13BDF37A326335C0A6627EF2C3A6627EF3DFA6627EA4
S1230A43F312327D6F606C604D2B066C60584920F8ED61EC656F656F66A3612406E3611C67
S1170A63FE20021A0169666965646166626A6026E832633970
S9030000FC
