S123001CCE005733C9072F33C9000033C90000108EC8808E00002717A6C0A7A0301F26F8A5
S11E003C108EC8808E001827066FA0301F26FABD034A5D2F037FCBFE7EF0001F
S11F00006720474345203230323580FD0DF850F0B8464953482047414D45800043
S1230057FF0CF90802FBF800FA0707081C0002FC0404FC04E100F7F409F60D00FF3D3DFF02
S1230077003AFFC33DFF003AFF3D3DFF003AFFC33DFF0050FF3D3AFF003DFFC33BFFD8006D
S1230097FF3CC401050A2D40BD00C0BD00BABD00B6BD00B2BDF1F8BDF192397FC822397FB3
S12300B7C82139C603F7C82039C601F7C81F393279AF61E7E4BDF354F60057F7D004E66A52
S12300D7E764E669E763E664E7E2E664BD07813261E6E4F7D004AE61AF65AE65BDF410322E
S12300F76739BD016D5D2F0AF6C883CB05F7C883200EBD016D5D2C08F6C883CBFBF7C883FE
S1230117BD01695D2F0AF6C882CB05F7C882200EBD01695D2C08F6C882CBFBF7C882F6C8CB
S123013782C1772F05C678F7C882F6C882C1B02E05C6B0F7C882F6C883C1772F05C678F7BA
S1230157C883F6C883C1882E05C688F7C883BDF1F839F6C81C39F6C81B39327CBDF354C670
S123017780F7D004F6C883E7E4F6C882E761E661E763E6E4E762E663E7E2E663BD0781320F
S123019761C678F7D0048E0058BDF3CEF6C8855D2603BD00F9326439C632E7E2C6CEE7E20A
S12301B7C6408E0073BD00C6326239327BF60057F7D004BDF354F6009EE761F6009D50E75E
S12301D763E661E762E663E7E2E663BD07813261F6009EE7E4E6E458E7E4E6E450E7646FBE
S12301F7E2E665BD077C3261326539F6C882C1772F11C678F7C882C603F7C881C67FF7C8D0
S1230217802010F6C811C4015D2708F6C882CB05F7C88239594F5520474F54205448452041
S12302374D41474943204649534821800046495348218000594F55204B4E4F572057484130
S1230257542054484154204D45414E533F8000F6C881C103262ABDF354C69CE7E28E022B4E
S1230277C680BD07643261F6C8805D270AF6C8805AF7C88016008D7FC8817FC885160084EE
S1230297F6C881C1021026004ABDF354C69CE7E28E0244C680BD07643261F6C8805D270DEE
S12302B7BD0202F6C8805AF7C880160057F6C881C1031027004E7FC8817FC885F6C8845A66
S12302D7F7C884F6C8845D102E0039C604F7C881160031F6C8805D2721F6C881C101261A35
S12302F7BDF354C69CE7E28E024BC680BD07643261F6C8805AF7C880200AC602F7C881C609
S12303177FF7C880397FC8827FC8837FC8857FC8807FC881C603F7C88439594F55204841F2
S12303375645204C4F5354205448452047414D452E8000327BBD031CBD009FBD071EC6F03F
S1230357F7D004BDF1BABDF192C65FBD0755BD0171BD01AFBD01C2F6C881C1042621BDF3BA
S123037754C69CE7E28E0331C680BD07643261F6C811C4085D1027FFC5BD031C16FFBFF687
S1230397C8855D102600566F64160046E6644F1F01AF62EC625849ED62EC62308BAF62ECCF
S12303B7625849ED62AE623089C886BD046FE6644F1F01AFE4ECE45849EDE4ECE4308BAFC1
S12303D7E4ECE45849EDE4AEE43089C886BD03FA6C64E664C1021023FFB216FF61BD02662D
S12303F716FF5B3276AF68AE68E605E7E4F6C882E761F6009BE06150E1E4102E0057AE68CD
S1230417E605E762F6C882E763F6009BE06350CB04E162102D003EAE68E604E764F6C883C6
S1230437E765F6009CEB65E1642D2AAE68E604E766F6C883E767F6009CE06750E1662E1548
S1230457F6C8855D260FC601F7C885C601F7C881C67FF7C880326A39344032E8ECAFE81020
S1230477BDF354E6F8105D2F16E6F8105AE7F810E6F8105D2606AEE810BD06AB160210AE35
S1230497E810E601E762E662C107102201CFE6624FEDE4ECE45849CE04B730CBAE846E8486
S12304B704C7050A05310575059D05E2060A064EAEE810E604C1782E09AEE810E605C164F4
S12304D72F08C604E7F8101601C5AEE810E604E763AEE810E602EB63AEE810E704AEE81048
S12304F7E605E764AEE810E602EB64AEE810E705160171AEE810E604C1782F08C604E7F80B
S12305171016018BAEE810E604E765AEE810E602EB65AEE810E70416014AAEE810E604C111
S1230537782E09AEE810E605C1882C08C604E7F81016015BAEE810E604E766AEE810E6024D
S1230557EB66AEE810E704AEE810E605E767AEE810E602E06750AEE810E705160106AEE855
S123057710E605C1882C08C604E7F810160120AEE810E605E768AEE810E602E06850AEE85C
S123059710E7051600DEAEE810E604C1882D09AEE810E605C1882C08C604E7F8101600EF75
S12305B7AEE810E604E769AEE810E602E06950AEE810E704AEE810E605E76AAEE810E60218
S12305D7E06A50AEE810E705160099AEE810E604C1882C08C604E7F8101600B3AEE810E60A
S12305F704E76BAEE810E602E06B50AEE810E704160071AEE810E604C1882D09AEE810E6AE
S123061705C1642F08C604E7F810160082AEE810E604E76CAEE810E602E06C50AEE810E773
S123063704AEE810E605E76DAEE810E602EB6DAEE810E70516002DAEE810E605C1642F080E
S1230657C604E7F810160047AEE810E605E76EAEE810E602EB6EAEE810E7052007C604E732
S1230677F810202BC605F7C828C678F7D004AEE810E604E76FAEE810E605E7E813E66FE7BC
S1230697E812E6E813E7E2E6E813BD0777326132E81435C0327CAFE4BD075AC403E762C694
S12306B71EE763C6FFE7F4BD075AC407AEE4E701BD075AC4035CAEE4E702AEE46F036D6225
S12306D7260CAEE4C69CE705AEE4E663E704E662C101260CAEE4C664E705AEE4E663E7047D
S12306F7E662C102260CAEE4E663E705AEE4C69CE704E662C103260CAEE4E663E705AEE465
S1230717C664E7043264393440327D6F622025E6624F1F01AFE4ECE45849EDE4ECE4308B8A
S1210737AFE4ECE45849EDE4EEE430C9C886C60AE7846C62E662C10223D5326335C01C
S12307551F987EF2AB327FBDF5171F893261393440327DE762AFE4A6671F13BDF37A3263C3
S114077535C0A6627EF2C3A6627EF3DFA6627EF3125C
S9030000FC
